:020000041000EA
:1000000000200008EB0000100D0000004D01001062
:1000100000000000000000000000000000000000E0
:100020000000000000000000000000004901001076
:10003000000000000000000049010010490100100C
:100040004901001049010010490100104901001048
:100050004901001049010010490100104901001038
:100060004901001049010010490100104901001028
:100070004901001049010010490100104901001018
:1000800010B5064C2378002B07D1054B002B02D06E
:10009000044800E000BF0123237010BDB003000836
:1000A000000000000C150010044B10B5002B03D00D
:1000B0000349044800E000BF10BDC0460000000036
:1000C000B40300080C1500100230800803D0013082
:1000D0000238FCD1C046C0467047EFF3108072B6BC
:1000E000704780F3108870477047FFF7FDFF72B6C6
:1000F0000F4C104DAC4209DA21686268A368043BDA
:1001000002DBC858D050FAE70C34F3E70A490B4A2F
:100110000020521A02DD043A8850FCDC08480949E4
:100120000860BFF34F8F00F0F9FE00F0A9FEFEE774
:100130001815001030150010B0030008C80500089D
:100140000000000808ED00E0FEE7FEE700B504202F
:100150007146084202D0EFF3098002E0EFF3088015
:10016000043000F08DFCFEE7014B18607047C0467C
:10017000C4050008044B1B681A00BA3212881B6AB7
:100180005043C0187047C046C40500081D4B984234
:100190000FD010D840282FD005D8002830D01028F4
:1001A00028D019481EE0802828D080235B00984280
:1001B000F7D1144816E0154B984214D008D8A02364
:1001C0001B0698421CD0124B9842EAD1A0200BE0AB
:1001D000104B98420AD0104B984209D00F4B9842CE
:1001E000DFD10F487047A420C003FBE70D48F9E7B3
:1001F0000D48F7E70D48F5E70D48F3E70D48F1E73F
:100200000020EFE706005200FF005200010000F05E
:10021000090000A0040000F0050000F0030000F059
:100220000100520002005200030052000100500081
:10023000020050000500520010B50020FFF79AFFA1
:100240000A4B1C682300BC331B68C0180368002BD2
:100250000ADB074B1868FFF799FF012263689A6071
:100260009A68002AFCD110BD0248FCE7C4050008CA
:10027000CC03000802005000064B1B68BC331B680F
:10028000C3181B68002B03DA89B241600020704755
:100290000148FCE7C405000801008A000368002B40
:1002A00004DA89B2C2608160002070470048FCE730
:1002B00001008A00064B1B68BC331B68C3181B680F
:1002C000002B03DAC36800200B6070470148FCE78D
:1002D000C405000801008A00024B1A68002A00D1F8
:1002E00018607047E0030008F0B52C246043154CFB
:1002F0001F0024681D0A2018FF2425402740124CA7
:100300001B0C26680760346A45608360BA363688FD
:1003100077433F1907612F0080376D017F01E7198F
:1003200064190A4D47611F043B436419236000238D
:100330008361059BC2610162002B01D01B88838110
:10034000F0BDC046E0030008C40500080810000026
:10035000F0B5836885B002AD2B800368066A173359
:100360006B804368476A0095826AC16A0400039300
:100370000369C068FFF7B8FF00213B000A00009145
:100380003000FFF7B1FF216B280000F02DFB0022A9
:10039000AB5E002B06DB1F2213401E3A9A4013006F
:1003A000014A136005B0F0BD00E100E0F7B52C256F
:1003B000134C684326686943341825690193711802
:1003C000002D19D08869002818D12E68002E15DA62
:1003D0006768012426004B689E40B44613689EB2AD
:1003E00063461B041E431660EA608C61BC40019B9F
:1003F000A4B24B62AC60FEBD0248FCE70248FAE7DB
:10040000E003000804028A0007028A0073B5002690
:1004100042690400D56801962B0CB34221D01B041D
:1004200013601368194B00691B68BC331B68C31841
:100430001B68B34215DA01A9FFF73CFFB0420CD1AB
:100440000198E26903681E0CDBB29A4205D9226A60
:100450009B009B58002B00D0984731002069FFF784
:100460000BFFADB2002D09D063691D6000251B682C
:10047000636AAB4205D098476562A56163691B68F2
:1004800073BDA36A002BF8D09847F6E7C4050008AF
:100490002C2310B54343034A1068C018FFF7B6FF7A
:1004A00010BDC046E0030008F8B5194B0F001B68EB
:1004B0001A0033321278824227D9002925D01F250D
:1004C0000A68154021D11900BA310C88114E6043D9
:1004D0001C6AD208041929007868346000F07EFF95
:1004E00029002000FFF7C8FE3A0029003068FFF716
:1004F000D5FE041E07D101003068FFF7BDFE0300E2
:100500002000002B00D00448F8BD0448FCE7C0469A
:10051000C4050008E403000801018A0003018A0001
:1005200010B5002A0DD1002914D10B4B1A68130005
:10053000BA331B885843136AC018084B1860080068
:1005400010BD002906D0064B196019005A60FFF74C
:10055000ABFFF5E70348F3E7C4050008E403000830
:100560007803000803018A00F7B5184F04003B68C0
:100570000191DE683368834226D90025A94202D161
:10058000FFF7ABFD050038680368002B1ADA1F225D
:1005900001232240934064097268A4001419226860
:1005A00013420DD09A43226000240021FFF764FE1D
:1005B000019B002B02D12800FFF793FD2000FEBD18
:1005C000034CF2E7034CF3E7034CF7E7E4030008BE
:1005D000020188000301880004018A000A4B1B689D
:1005E000DB681A6882420DD959681F2342091840F6
:1005F0001E3B8340920050581840431E9841034BC5
:10060000C01870470248FCE7E403000800018800B6
:1006100004018A00054B1B681A0088321B681268A7
:100620009B181868000AC0B27047C046C40500088D
:10063000044B1B681A0088321B6812689B181868E4
:10064000000E7047C4050008024B18694007C00F30
:100650007047C04600002740A6220549D2008B58AB
:100660000220DB439B0702D00123885818407047C3
:100670000000264010B5FFF7EFFF0023022801D14C
:10068000014B1B68180010BDEC030008094A8300E9
:100690009B18D0229200985807221040042807D1B6
:1006A000C022920098581F23034080204000184326
:1006B0007047C0460000264010B5FFF7E7FF02284C
:1006C0001CD005D8002824D0012814D0002014E024
:1006D0001223FF33984214D01423FF33984215D0CD
:1006E000033B9842F2D10C4A0C4BD358002BEDDA65
:1006F0008020000201E00A4B186810BDFFF7BAFF26
:10070000FBE7FFF7A1FF0028E0D0F1E7024A054B25
:10071000EBE70548F1E7C046000026400C05000065
:10072000E80300083C05000000127A00B023154AD7
:10073000DB00D35810B59903DB01DB0F890BC371C4
:10074000114B0160D3580F24D904DB01DB0D038169
:10075000B123DB00D358C90C81801900214081727C
:1007600019092140C172D9029B009B0F8373074B6B
:10077000C90CD35881815A05DB01520FDB0D827100
:10078000038210BD00002640840500008C05000097
:1007900010B5104B421E1B683F331B78934216D98D
:1007A0007F221F248030FF300B4B8000C3581A403B
:1007B0000A701A0C2240180A8A701A012040E2407E
:1007C000487000209B009B0FCA700B7110BD03483E
:1007D000FCE7C046C40500080000264001004A00AE
:1007E000F0B589B003AC14220021200000F0F6FD22
:1007F0002000FFF79BFFB0231A4ADB00D2580023EA
:100800009A4203DAA37B023B5A1E9341E579002604
:100810006A1E95410135B34221D0A488B4421ED04E
:10082000039B30000193FFF747FF2A0033000700C6
:100830003100200000F0BCFC0C0005003300019AE0
:100840003100380000F0B4FCE6076A083243630860
:10085000801859412A00230000F08AFC060030006D
:1008600009B0F0BD00002640F0B50026244B85B04D
:100870001B6807003F331B78B3423ED0B0423CD0E8
:1008800083423AD30522310002A800F0A7FD02A955
:100890003800FFF77DFF3B008033FF33194A9B0090
:1008A0009B58B34229DA02AB1B79022B25D002AB4D
:1008B0005C78B44221D09D78B5421ED01B783800B8
:1008C0000193FFF7F9FE2A003300070031002000F2
:1008D00000F06EFC0C0005003300019A3100380076
:1008E00000F066FCE6076A08324363088018594145
:1008F0002A00230000F03CFC0600300005B0F0BDEB
:10090000C40500080000264010B5041E04D1FFF7FE
:1009100067FF002806D008E0064B1B683F331B78B2
:10092000834203D22000FFF7C7FE10BDFFF79CFFF4
:10093000EFE7C046C4050008E02210B50124094BCA
:1009400080009200C018835880589B069B0F9C40E3
:100950000F231840FFF7D8FF63081818210000F094
:100960007BFB10BD00002640144B30B51A680724ED
:1009700013002C331B781F2B15D883081D00A543AB
:100980002C1E0FD103342040A040814012689B00F0
:100990002032D3180A00FF2181401C6862401140B8
:1009A0006140196030BD802320401B06184380231E
:1009B0009B011268C91889008850F3E7C405000834
:1009C000064B9A680300064810339B00824202D10E
:1009D000985899507047034AD058FBE700ED00E063
:1009E0000000000800000010F8B506000D00002807
:1009F0003AD00023C05E002828DB7188FFF7B4FFDF
:100A00000024FF22032794460023F05E716883B21E
:100A10001F40FF006646BA4089013140D243B940C9
:100A2000002815DB114E83089B009B19C026B600D9
:100A30009F593A40114399510D4B9A680D4B9A4278
:100A400002D12900FFF7BCFF2000F8BD0A4CD8E70F
:100A50000F263340083B064E9B089B009B19DE691E
:100A600032401143D961E7E7034CEDE700E100E0D4
:100A700000ED00E00000000801005600FEE7000065
:100A800002680A4B10B51A6042685A6082689A6020
:100A9000C268DA6002691A6142695A6182699A61C0
:100AA000C269DA61FFF7EAFF10BDC0469003000893
:100AB000B0235B055A782120002A01D05878C0B2B3
:100AC0007047B0235B059A89002A02D0988980B2CA
:100AD000704780204000FBE77FB5274B86000D0064
:100AE000F458042901D0012927D100200FE0A36880
:100AF0002B420BD1E36829001A685B6802920193CC
:100B0000039302A8236898471C4B1C606469002C5F
:100B10000BD01B4B9842EAD1012DE8D1174B184856
:100B20001A68184B9A5104B070BD012DFBD1144BBB
:100B30009842F3D0134B9C51F5E7022906D10F4B95
:100B40001B68181EEFD01C6903E01C006369002BB2
:100B5000FBD10020002CE6D0A3682B4209D1E3682A
:100B600029001A685B6802920193039302A8236824
:100B700098472469EEE7C046300400082C040008BA
:100B8000FF004200180400081A4B1B681900883146
:100B90001A68096851180968016219008C310968DE
:100BA0005218126842621A0046321278002A1FD088
:100BB0009A68E0321268D2061AD5F222DB68D201B6
:100BC0009A580260F022D2019A5842600A4A9A5812
:100BD00082600A4A9A58C260094A9A580261094AD0
:100BE0009A584261084A9A588261084A9B58C361E0
:100BF0007047C046C405000804780000087800006B
:100C00000C780000107800001478000018780000BC
:100C10001A4B1B681A008832196812688A18016A10
:100C200011601A008C32196812688A18416A1160C2
:100C30001A0046321278002A1ED09A68E0321268F2
:100C4000D20619D5F0224168DB68D201995081683B
:100C50000B4A9950C1680B4A995001690A4A995048
:100C600041690A4A99508169094A9950C169094AFA
:100C700099500168E83299507047C046C405000891
:100C800004780000087800000C780000107800005C
:100C90001478000018780000F7B50700FFF708FF88
:100CA000664D06006B68002B00D07DE0FFF715FA5B
:100CB0006B680090002B00D089E0614C2268130023
:100CC000BA33198807234B43126A9B181A68002A03
:100CD000FCDADB68DA0021D51B0F1B0759480193AA
:100CE000FFF752FF5849212E00D075E0226890206E
:100CF000130088331C68136800011C1923680B401B
:100D00000343236013008C3312681B68D3181A68DE
:100D10001140084318604B4B019A13438022484E00
:100D20009205316813430A00BA3210880722002462
:100D30004243096A5218D36054605368FFF7C1FEFA
:100D400080235B0098425DD1380000F05DFB326883
:100D50001300BA33198807234B43126A9B181A6889
:100D6000002AFCDADF68FB0003D538010009FFF731
:100D70004FFF364B32681F401300BA3319880723E0
:100D80004B43126A00989B180022DF605A60FFF7FD
:100D9000A8F9002C0FD16B68002B03D0082101208B
:100DA000FFF79AFE2000FEBD01210800FFF794FE28
:100DB000041E00D17AE76B68002B03D002210120CA
:100DC000FFF78AFE224B9C42ECD0224CEAE704213A
:100DD0000120FFF781FE70E720688022030088333E
:100DE0001C68036852001C1923680B4013432360DE
:100DF00003008C3300681B68C318186801400A435D
:100E00001A6088E733681A00BC32196A12685218EF
:100E10001168002910DBBA331B889A181368002B5D
:100E20000ADB04230C4A11690B431361012F01D023
:100E300030BF8CE720BF8AE7054C88E73004000804
:100E4000C4050008F0030008FF00FFFFFFFFFFDFFD
:100E500005004200FF00420000ED00E0C0228020BB
:100E6000064952008B58C0059B009B0803438B50DA
:100E7000802388581B0603438B5070470000264090
:100E800010B562B6034800F0C1F80020FFF704FF78
:100E9000FBE7C0460020001010B50020FFF7F8FA6D
:100EA00010BD704710B50020FFF746FD041E25D089
:100EB000134B1860FFF7BCFB411C200000F0CCF87E
:100EC000104B04001860FFF7A5FB411C200000F048
:100ED000C3F80D4B441E18600C49200000F0BCF80C
:100EE000FA210B4B013018708900200000F0B4F893
:100EF000084B01301860084BC003186010BDC04695
:100F000084000008880000088000000840420F00AC
:100F100094000008900000088C00000810B52048DC
:100F2000FFF722F9B022E02130201E4CD200A35856
:100F300089005B005B08A3506358834363508023A0
:100F40005B04A350184B194AE250A02204339201CB
:100F5000E250FF22164BE250FFF780FFC022012132
:100F60005200A3588B43A350FFF79BFFFFF79AFF54
:100F7000104B03201A681300BA33198807234B4318
:100F8000126A80219B180022DA605A600A4AFFF731
:100F9000C7FA0A48FFF7A0F90948FFF7D9F910BDC9
:100FA0001814001000002640840500000100020013
:100FB0008C050000C40500088003000844040008F4
:100FC000D81400109023034A5B01D0580323184023
:100FD0007047C0460000204010B59024FFF77DF810
:100FE000074B64011A5907491140074A0A431A512D
:100FF000102259681142FCD0FFF773F810BDC046AB
:1010000000002040FCFF00000100FA05F8B5902523
:101010000E4C6D010700FFF760F863590600DB43D3
:101020009B0701D1FFF7D8FF80239B00E75063594E
:10103000074A1A40074B13436351102362681A4250
:10104000FCD03000FFF74DF8F8BDC046000020404E
:10105000FCFF00000300FA05002243088B4274D312
:1010600003098B425FD3030A8B4244D3030B8B42A9
:1010700028D3030C8B420DD3FF22090212BA030CB2
:101080008B4202D31212090265D0030B8B4219D393
:1010900000E0090AC30B8B4201D3CB03C01A5241B3
:1010A000830B8B4201D38B03C01A5241430B8B42FB
:1010B00001D34B03C01A5241030B8B4201D30B03E4
:1010C000C01A5241C30A8B4201D3CB02C01A52410B
:1010D000830A8B4201D38B02C01A5241430A8B42CE
:1010E00001D34B02C01A5241030A8B4201D30B02B7
:1010F000C01A5241CDD2C3098B4201D3CB01C01AD1
:10110000524183098B4201D38B01C01A52414309DA
:101110008B4201D34B01C01A524103098B4201D3C8
:101120000B01C01A5241C3088B4201D3CB00C01A35
:10113000524183088B4201D38B00C01A52414308AD
:101140008B4201D34B00C01A5241411A00D20146D2
:10115000524110467047FFE701B5002000F006F845
:1011600002BDC0460029F7D076E770477047C046F9
:10117000002B11D1002A0FD1002900D1002802D064
:101180000021C943081C07B4024802A1401802907C
:1011900003BDC046D9FFFFFF03B4684601B50298FE
:1011A00000F030F8019B9E4602B00CBC7047C04670
:1011B000F0B5CE46474615042D0C2E0080B5070429
:1011C000140C3F0C9946030C7E435D436743634315
:1011D0007F19340CE4199C46A54203D980235B0295
:1011E0009846C4444B4643435143250C360465445A
:1011F000360C2404A4195B19591820000CBC904625
:101200009946F0BDF0B54F464646D646C0B50400F7
:1012100082B00D00914698468B422FD82CD0414683
:10122000484600F0CFF829000600200000F0CAF878
:10123000331A9C46203B9A4600D576E04B465246F0
:1012400093401F004B46624693401E00AF4228D891
:1012500025D05346A41BBD41002B00DA7BE00022C1
:1012600000230092019301235246934001930123EE
:1012700062469340009318E08242D0D900220023B6
:10128000009201930A9B002B01D01C605D600098C6
:10129000019902B01CBC90469946A246F0BDA342FB
:1012A000D7D900220023009201936346002BE9D096
:1012B000FB079846414672080A437B0866460EE0E3
:1012C000AB4201D1A2420CD8A41A9D41012024199D
:1012D0006D410021013E24184D41002E06D0AB4245
:1012E000EED9013E24196D41002EF8D100980199E4
:1012F000534600196941002B23DB2B005246D34093
:101300002A006446E2401C0053461500002B2DDBEA
:1013100026005746BE40330026006746BE403200D6
:10132000801A994100900191ACE7624620239B1AF4
:101330004A46DA406146130042468A4017001F437E
:1013400080E7624620239B1A2A0066469A402300C3
:10135000F3401343D4E76246202300219B1A002266
:10136000009101920122DA40019280E72023624637
:1013700026009B1ADE402F00B0466646B740464620
:101380003B003343C8E7C0461C2101231B0498429D
:1013900001D3000C10391B0A984201D3000A083906
:1013A0001B09984201D30009043902A2105C4018BD
:1013B0007047C04604030202010101010000000061
:1013C0000000000010B5002903D1FFF7DDFF203039
:1013D00002E0081CFFF7D8FF10BDC046030012183A
:1013E000934200D1704719700133F9E7F8B5C04650
:1013F000F8BC08BC9E467047F8B5C046F8BC08BCAF
:101400009E4670470000000001B40248844601BCBB
:10141000604700BF61020008000020400000244037
:1014200000000040000000000000234000003040A9
:101430000000314000009F400000224000001040AA
:1014400000009B402020202020132010101E208010
:1014500017007500FF03050104001C0310000000C5
:101460001FC0000000040000000000000019324B03
:10147000647D0202000000804000080B10000000A4
:101480000000FF012002001F00800004FF08101868
:10149000001000140018001C4044484C500000008C
:1014A0000810000008000000040000000410000004
:1014B00000120000042100000021000000160000BE
:1014C00040114002C41300138013A013401388136B
:1014D000A81320001C000000030000000100000011
:1014E000010000000000000005036000040000008F
:1014F0000100000000000000010000000604600080
:1015000008000000A4050008990E0010000000006B
:10151000F4FCFF7F01000000000000100000000844
:10152000800000003815001080000008F80200005C
:10153000B00300081802000000093D0000127A0004
:1015400000093D000000D007A00F000004000000CB
:10155000A90000108100001080B230B5C00020D07A
:10156000104B07221C682300BA331B885A43236A96
:10157000D31819680029FCDA3E210B4B06251960A7
:101580000A4B0B491960A3210A4BC9005D500A4957
:1015900058505858206A1218002050605A58002A93
:1015A000FCDA30BDC40500080401264008012640CD
:1015B0001E1F0000000026401C05000010B54378E7
:1015C000FF2B11D100F00CF90400032000F0E8F823
:1015D000C3685A68012311681943116011681942E0
:1015E000FCD1200000F01CF910BDF7B500900020E0
:1015F000019100F0D5F83F4D06002B681A005033DA
:10160000BC3214681B780419002B5AD000F0F8F88B
:10161000070003281BD000F0E3F8374A374B0500DA
:10162000D358002B3EDA364A0121300000F0C0F8D2
:10163000002837D10198FFF78FFF009B002B3ED089
:101640002368002BFCDB00F0C3F804002BE006202D
:1016500000F0A6F82B68BC331B68C0180368002B89
:1016600002DA284C2000FEBD002000F0C1F8264B15
:101670009842F6D00023254A19001268012000F094
:101680009FF80025A842ECD1002000F0B1F81E4AD6
:101690001F4B904203D09D42E3D00135F4E79D42B9
:1016A000B9D1DEE7174C032F05D10121002000F04E
:1016B000AFF80028F9D1280000F0B2F8D2E7154CB5
:1016C000F1E700F08DF80E4A05000121300000F02E
:1016D0006FF8002809D1009B002B08D02368002B4D
:1016E000FCDB00F075F80400E5E7064CE3E7094C85
:1016F000E1E7C046C4050008000026401C050000C4
:10170000CC0300080500520001018800DC0300083A
:10171000F049020001005000184BF7B51B68184A49
:101720005C68042311690B431361012824D030BF86
:101730002300FC331B69002B1DD1A320114B124940
:10174000124AC0000F681E5815680195104D0D60B3
:1017500006251D503E2010600E483E351D501D5878
:10176000002DFCDA0C48FC3420610F60A321C90075
:101770005E50019B1360F7BD20BFD9E7C405000888
:1017800000ED00E00000264008012640040126404C
:101790001E1F00001C050000AAAAAAAA0000000043
:1017A00001B40248844601BC604700BF75010010C7
:1017B00001B40248844601BC604700BF9D0200108E
:1017C00001B40248844601BC604700BFAD0300106D
:1017D00001B40248844601BC604700BF39020010D2
:1017E00001B40248844601BC604700BFDB00001022
:1017F00001B40248844601BC604700BFDD0500100B
:1018000001B40248844601BC604700BFC50F001008
:1018100001B40248844601BC604700BF690500105E
:1018200001B40248844601BC604700BFE3000010D9
:1018300000000000000000000000000000000000A8
:081840000000000000000000A0
:1020000000F80108412300100D000000B523001066
:10201000B5230010B5230010B52300100000000008
:10202000000000000000000000000000312D001042
:10203000B123001000000000D12D0010D92C001099
:10204000B123001000000000B1230010B1230010E4
:1020500000000000B1230010B1230010B1230010D4
:10206000B1230010B1230010B1230010B1230010E0
:10207000B123001000000000B1230010B1230010B4
:10208000B1230010B1230010B1230010B1230010C0
:10209000B1230010B1230010B1230010B1230010B0
:1020A000B1230010B1230010B1230010B1230010A0
:1020B000B1230010B1230010B1230010B123001090
:1020C000B1230010B1230010B1230010B123001080
:1020D000B1230010B1230010B1230010B123001070
:1020E000B1230010B123001000000000B123001044
:1020F000B1230010B1230010B1230010B123001050
:1021000000000000B1230010B1230010B123001023
:10211000B1230010B12300100000000000000000F7
:10212000B1230010B1230010B1230010B12300101F
:10213000B1230010B1230010B1230010B12300100F
:10214000B1230010B1230010B1230010B1230010FF
:10215000B1230010B1230010B1230010B1230010EF
:10216000B1230010B1230010B1230010B1230010DF
:10217000B1230010B1230010B1230010B1230010CF
:10218000B1230010B1230010B1230010B1230010BF
:10219000B1230010B1230010B1230010B1230010AF
:1021A000B1230010B1230010B1230010B12300109F
:1021B000B1230010B1230010B1230010B12300108F
:1021C000B1230010B1230010B1230010B12300107F
:1021D000B1230010B1230010B1230010B12300106F
:1021E000B1230010B1230010B1230010B12300105F
:1021F000B1230010B1230010B1230010B12300104F
:10220000B1230010B1230010B1230010B12300103E
:10221000B1230010B1230010B1230010B12300102E
:10222000B1230010B1230010B1230010B12300101E
:10223000B1230010B1230010B123001000000000F2
:10224000000000000000000000000000B1230010AA
:10225000B1230010B1230010B1230010B1230010EE
:10226000B1230010B1230010B123001000000000C2
:10227000000000000000000000000000000000005E
:102280000000000000000000B1230010000000006A
:10229000000000000000000000000000000000003E
:1022A000000000000000000000000000000000002E
:1022B000000000000000000000000000000000001E
:1022C000B1230010B1230010B1230010B12300107E
:1022D00000000000000000000000000000000000FE
:1022E000B1230010B1230010B1230010B12300105E
:1022F000B1230010B1230010B123001010B5054C1C
:10230000237833B9044B13B10448AFF300800123A1
:10231000237010BD1C2A000800000000F8FE001009
:1023200008B5034B1BB103490348AFF3008008BD58
:1023300000000000202A0008F8FE001070477047D7
:10234000FFF7FCFF72B6144C144DAC4209DA216859
:102350006268A368043BA2BFC858D050FAE70C34A7
:10236000F3E70F490F4A00209142BCBF41F8040B2C
:10237000FAE70D480D490860BFF34F8F00F072FA7D
:1023800000F056FA00F0E2FB0AF082F800F0A6FA3C
:102390000AF04AF8FEE7000004FF00101CFF0010DE
:1023A0001C2A0008BCFA00080020000808ED00E024
:1023B000FEE7FEE700B504207146084202D0EFF3C5
:1023C000098002E0EFF30880043008F0DDFCFEE74E
:1023D00000B585B08DF80C00012301930022009216
:1023E00003AA4F210E4803F0BBFC00B101BE01233C
:1023F000019300230093022302AA4F21084803F00F
:10240000FBFC00B101BE9DF8080040009DF90930B9
:10241000002B02DB05B05DF804FB40F00100F9E79A
:10242000382A000808B50020FFF7D2FF09F096FC13
:102430000022034B0CF0B8FD09F0FAFC08BD00BF08
:102440000000E03F00B587B08DF814008C238DF8B4
:102450000830012301930022009202AA29211F487B
:1024600003F07EFC00B101BE012301930022009223
:1024700003AA2921194803F0BFFC00B101BE9DF851
:102480000C3013F0040F10D19DF810309DF811009E
:1024900043EA00239DF8120043EA00439DF813002D
:1024A00043EA006007B05DF804FB012301930022BA
:1024B000009205AA2921094803F052FC00B101BE8F
:1024C0000123019300230093042304AA2921034834
:1024D00003F092FC0028D7D001BED5E7382A0008C7
:1024E00000B585B04FF4C073ADF80C3001230193F3
:1024F00000230093022303AA2921054803F030FC9E
:1025000000B101BEC82004F0D9FA05B05DF804FBA3
:10251000382A000808B58820FFF794FF08BD00B5E9
:1025200083B04FF4E1330093FF231A46282129207A
:1025300009F098FA00B101BE03B05DF804FB000099
:1025400008B5002302220321074803F079FB08B1F4
:1025500001BEFEE70549044803F0E8FB08B101BEEF
:10256000FEE7002008BD00BF382A0008FC22000852
:1025700008B5FFF7E5FFFFF7B3FF08BD38B5FFF774
:10258000C9FF0546FFF74EFF0446294607480AF0F3
:1025900011FD204609F0F4FB02460B4604480AF000
:1025A00009FD4FF4FA7004F089FAE8E7E0F500104D
:1025B000ECF5001008B500F039F800F003F800F071
:1025C00015F808BD08B50021084607F037FCFF22C2
:1025D0000021084607F0A6FA0021084607F0ECFBA8
:1025E000014803F039F908BDFCF5001010B5094C9D
:1025F000094A0621204605F051F9084803F02CF954
:10260000074A0721204605F049F9064803F024F956
:1026100010BD00BF0003314038F600106CF600100A
:1026200000F6001034F60010FEE7000010B5962109
:10263000002008F0FBFB012009F04EF909F0F4F846
:1026400009F0CEF909F0B8F90021084607F084FD39
:10265000002007F0EFFC012007F0D4FC002007F079
:1026600069FC4A4B1B6893F83F4003E0204607F0A3
:10267000E9FF013C002CF9D10021012007F0F2FD17
:10268000002007F057FD002869D007F09FFE0021C9
:10269000084607F0E7FD0021084607F02BFD002063
:1026A00007F0C8FC002007F0ADFC002007F042FC5A
:1026B0000021012007F0D6FD0021084607F0D2FDD9
:1026C0000021022007F0CEFD0021032007F0CAFD03
:1026D0000021042007F0C6FD2D4807F091FE0028D8
:1026E00048D12C4807F03CFF002846D1002108467D
:1026F00007F000FD0021084607F02EFD26490120C5
:1027000007F0C6FF00283BD142F21071012008F00B
:102710004DF8C0BB07F054FC002007F025FC00205A
:1027200007F038FC07F042FC6421002008F07EFB33
:1027300000F044F807F04EFD002007F05FFD174859
:1027400003F08AF8164803F087F8164803F084F877
:10275000154803F081F8154803F07EF810BD07F026
:10276000AFFD40F2111398428FD10121002007F0F4
:10277000C1FC8AE70420FFF757FF0420FFF754FF4E
:102780000320FFF751FF0320FFF74EFF6CF900080D
:1027900070F60010400D030098F6001084F600104B
:1027A00088F600108CF6001090F6001094F60010D9
:1027B00008B5012005F0A2FA08BD704710B5002049
:1027C00008F0FEF900B910BD0446114B186007F07F
:1027D00027FC0130B4FBF0F00E4B186007F038FC1A
:1027E0000130B4FBF0F40C4B1C60013C0B4BA3FB21
:1027F00004239B0C01330A4A13700A4BA3FB0423E6
:102800009B090133084A1360DB03084A1360DAE7C7
:102810002C230008302300082823000883DE1B43F4
:102820003C230008D34D62103823000834230008ED
:1028300008B5094804F080FEFFF7BFFFFFF7BEFFB1
:1028400000221146032005F0AFFA044805F010F904
:10285000034805F065F908BD3CFA0010EC2A0008B1
:10286000A0F60010EFF3108172B6074AD2F8883054
:1028700043F47003C2F88830BFF34F8FBFF36F8FFC
:1028800081F31088704700BF00ED00E008B50448F0
:1028900008F04EFC08B1002008BD0248FCE700BF6C
:1028A000402300080000020610B502F0D3FF0446E2
:1028B00028B144B1FFF77EFE5CB1204610BD04F0A4
:1028C00041F80446F5E740F6E441002004F0ECF856
:1028D000F0E7FFF7DBFF0446EFE7000010B5FFF776
:1028E000E3FF00B101BEFFF71AFE62B60F480AF01F
:1028F00061FB0F4C20460AF05DFB0E490E480AF0C2
:1029000059FB0E490E480AF055FB0E490E480AF0D5
:1029100051FB0E490E480AF04DFB20460AF04AFBD7
:10292000FFF726FEFFF72AFEFEE700BFD4F60010F1
:10293000E0F600100423000818F7001020F700103C
:102940002CF7001038F7001044F700105C23000843
:1029500050F70010000000000230800803D0013062
:102960000238FCD100BF00BF7047EFF3108072B691
:10297000704780F310887047B0F1FF3F22D008B352
:1029800038B5C50E43011B1A65F10005AD0045EAD7
:1029900093759B00181845F10005ED0045EA507548
:1029A000C4004FF47A7200232046294609F0E0FA69
:1029B0006FF47A73A34240F2E733AB4101D26FF078
:1029C000010038BD7047002070470000034B0360D2
:1029D000034B0B6080231360704700BF8C320008EC
:1029E0008C2C0008034B0360034B0B604FF4807387
:1029F000136070475C3300088C2E000830B583B03C
:102A00000446002301931D4B1B68CBB11B4B1B6875
:102A1000A3B1FFF7AAFF054601F056FF58B14FF4E6
:102A20007A7000FB04F41648A0FB0434A409FFF7F5
:102A3000CAFF84420ED82846FFF79BFF03B030BD83
:102A4000104803F087FB18B90C4B0E4A1A60DDE7FB
:102A500001BEDBE7012301AA211A0848006803F040
:102A6000B9FF0028E7D1019BA34200D901BE01981C
:102A7000FFF782FF01F0B2FADDE700BF742C000817
:102A8000D34D6210782C0008EFF3058303B100BE2C
:102A90007047000008B5074B1B7813B1054B187839
:102AA00008BD01F03BFF013818BF0120014B187031
:102AB000F4E700BF7C35000810B5FFF7E5FF00F034
:102AC00049F90024032C0BDC104B53F8243013B1CC
:102AD000013424B2F6E70D4B012143F8241001E044
:102AE0004FF0FF3400F058F9002C0BDB04EB8401AD
:102AF000074B03EB0111042001F0B8F8034B43F836
:102B0000240010BD00BE0020FBE700BF2C340008ED
:102B10003C34000810B50446FFF7B6FFFFF7BAFFD4
:102B200030B142F21071204600F092FF0128F8D136
:102B300010BD10B50446FFF7A7FFFFF7ABFF00B9C4
:102B400010BD204600F0F9FCFAE7000008B5FFF7D9
:102B5000B3FF074B1860FFF7AFFF064B1860FFF796
:102B6000ABFF054B1860FFF7A7FF044B186008BDCB
:102B70008835000884350008803500088C35000849
:102B800008B50346084A1068084A121A9A4203DB3D
:102B90000344054A136008BD09F06AFB0C23036077
:102BA0004FF0FF30F7E700BF6C23000800E8010892
:102BB00008B5024B1868FFF7ADFF08BD883500085F
:102BC00008B5024B1868FFF7B4FF08BD8835000848
:102BD00000F1080343604FF0FF328260C36003617D
:102BE00000230360704700230361704743684B6014
:102BF0009A688A60516099600861036801330360D4
:102C000070470369416882688A60416851605A6808
:102C1000824206D0002202611A68013A1A601868DE
:102C2000704782685A60F5E730B40D68B5F1FF3F30
:102C300011D000F108031C465B681A68AA42FAD951
:102C400063684B6099608C60616008610368013360
:102C5000036030BC70470469F2E7000082B00023D3
:102C600001930D4B1B68B3F1FF3F08D04FF03F03BA
:102C700083F31188BFF36F8FBFF34F8F01BE4FF007
:102C80003F0383F31188BFF36F8FBFF34F8F019B17
:102C9000002BFCD002B07047702300080848006881
:102CA000006880F308884FF0000080F3148862B653
:102CB00061B6BFF34F8FBFF36F8F00DF00BF00001F
:102CC00008ED00E0DFF80C00016841F470010160DC
:102CD0007047000088ED00E008B54FF03F0383F334
:102CE0001188BFF36F8FBFF34F8F01F0BDF928B18B
:102CF0004FF0E0234FF08052C3F8042D002383F3FC
:102D0000118808BD4FF0807340F8043C21F00101A8
:102D100040F8081C054B40F80C3C40F8202C6FF0A4
:102D2000020340F8243C4438704700BF5D2C00107B
:102D3000074B19680868B0E8F04F80F30988BFF3C3
:102D40006F8F4FF0000080F311887047AFF3008061
:102D500004F600084FF03F0383F31188BFF36F8F31
:102D6000BFF34F8F0B4A136801331360012B00D060
:102D700070474FF0E023D3F8043D13F0FF0FF7D076
:102D80004FF03F0383F31188BFF36F8FBFF34F8F73
:102D900001BEEDE770230008094B1B6843B94FF0F3
:102DA0003F0383F31188BFF36F8FBFF34F8F01BED3
:102DB000034A1368013B13600BB983F31188704712
:102DC0007023000800000000000000000000000068
:102DD000EFF30980BFF36F8F154B1A681EF0100FC9
:102DE00008BF20ED108A20E9F04F10602DE909009E
:102DF0004FF03F0080F31188BFF34F8FBFF36F8F09
:102E000001F0F2FA4FF0000080F3118809BC196854
:102E10000868B0E8F04F1EF0100F08BFB0EC108A41
:102E200080F30988BFF36F8F704700BFAFF3008056
:102E300004F600084FF0E022002313619361074B72
:102E40001B680749A1FB03139B09013B536107233F
:102E50001361044B9B68044ADA6370472823000817
:102E6000D34D621000ED00E0D92C001030B583B0D6
:102E70004FF0E023D3F8002D3E4B9A421AD04FF08A
:102E8000E023D3F8002D3C4B9A421DD03B4B1A78DF
:102E9000D2B20192FF221A701B78DBB28DF8033098
:102EA0009DF8033003F03F03354A1370354B07227A
:102EB0001A601DE04FF03F0383F31188BFF36F8F5B
:102EC000BFF34F8F01BEDAE74FF03F0383F3118862
:102ED000BFF36F8FBFF34F8F01BED7E7294A136847
:102EE000013B13609DF803305B00DBB28DF80330CB
:102EF0009DF8033013F0800FF0D1224B1B68042B98
:102F000008D04FF03F0383F31188BFF36F8FBFF3F7
:102F10004F8F01BE1B4A13681B02136003F4E0636A
:102F20001360019BDBB2154A13704FF0E024D4F814
:102F3000203D43F47F03C4F8203DD4F8203D43F006
:102F40007F43C4F8203DFFF775FF00250E4B1D6041
:102F5000FFF7B8FED4F8343F43F04043C4F8343FA1
:102F6000FFF79CFE01F040FAFFF778FE284603B019
:102F700030BD00BF71C20F4170C20F4100E400E0DC
:102F8000903500089435000870230008EFF305839E
:102F90000F2B0FD9114A9B5CDBB2114A12789A426F
:102FA00008D94FF03F0383F31188BFF36F8FBFF34E
:102FB0004F8F01BE4FF0E023D3F80C3D03F4E063E4
:102FC000084A1268934208D94FF03F0383F31188EF
:102FD000BFF36F8FBFF34F8F01BE7047F0E300E088
:102FE00090350008943500084FF03F0383F31188B3
:102FF000BFF36F8FBFF34F8F01BEFEE74FF03F036C
:1030000083F31188BFF36F8FBFF34F8F01BEFEE7CD
:10301000104A12F0070F1AD0D11D21F00701C1F597
:10302000404313440A460C480260002141601344A7
:10303000083B23F007030948036059601960991A97
:1030400051601360064B1960064B196070474FF4CE
:103050004043E8E79C350008ACF5000898350008C7
:10306000A0F500089CF50008164B1A461B68834221
:10307000FBD3516802EB010C844509D0416800EB99
:10308000010C634509D00360904219D0106070476D
:103090004068014451601046F0E710B40A4C2468BF
:1030A000A3420BD05B681944416013681B6803603E
:1030B000904200D010605DF8044B70470460F7E761
:1030C000704700BFACF500089835000870B505469C
:1030D00001F06AFD3C4B1B6893B13DB105F007035D
:1030E000C3F11003DA43AA420DD31D44002D0CDBBB
:1030F000F5B1364B1B68AB421ED3354A146821E04C
:10310000FFF786FFE9E70025F0E701F069F8002600
:10311000FFF76AFF16F0070F08D04FF03F0383F365
:103120001188BFF36F8FBFF34F8F01BE304670BD64
:1031300001F056F80026EBE701F052F80026E7E729
:1031400022461C466368AB4202D22368002BF7D1AB
:103150001D4B1B68A34233D01668083623681360E2
:1031600063685B1B102B12D9601910F0070F08D091
:103170004FF03F0383F31188BFF36F8FBFF34F8F7F
:1031800001BE63685B1B43606560FFF76DFF6268AB
:103190000E490B689B1A0B600E4909688B4201D2DD
:1031A0000C490B6042F000426260002323600A4A2F
:1031B00013680133136001F013F8002EAAD1A7E7BA
:1031C00001F00EF80026A3E7983500089CF50008EA
:1031D000ACF50008A0F50008A4F5000800283AD0D6
:1031E00038B50446A0F1080550F8043C002B08DB74
:1031F0004FF03F0383F31188BFF36F8FBFF34F8FFF
:1032000001BE54F8083C43B14FF03F0383F31188EB
:10321000BFF36F8FBFF34F8F01BE54F8043C002BF8
:1032200002DA54F8082C02B138BD23F0004344F808
:10323000043C01F0B9FC54F8041C074A13680B4421
:1032400013602846FFF710FF044A13680133136028
:1032500000F0C6FFE8E770479CF50008A8F50008F5
:103260000346406A18B11B6B1868C0F1070070472D
:1032700010B50446FFF76EFDA26BE36B9A4204D0D3
:103280000024FFF789FD204610BD0124F9E710B5A1
:103290000446FFF75FFDA36B23B90124FFF77CFD14
:1032A000204610BD0024F9E770B504461546866B2C
:1032B000026C5AB903681BB100200136A66370BDC9
:1032C000806801F003FD0023A360F6E76DB9406854
:1032D00009F00EF9226C636813446360A26893429C
:1032E00019D3236863602846E7E7C06809F000F94E
:1032F000226C5142E3689B1AE3602268934202D237
:10330000A3680B44E360022D01D00020D5E726B16D
:10331000013E0020D1E72846CFE70020CDE7034655
:10332000026C6AB110B50846D9681144D9609C682E
:10333000A14201D31968D960D96809F0D9F810BD44
:10334000704738B50546FFF705FD95F8454064B26E
:1033500001E0013C64B2002C0ADD6B6A43B105F167
:10336000240001F079F90028F3D001F0A7FAF0E782
:10337000FF2385F84530FFF70FFDFFF7EBFC95F8CD
:10338000444064B201E0013C64B2002C0ADD2B69C8
:1033900043B105F1100001F05FF90028F3D001F00E
:1033A0008DFAF0E7FF2385F84430FFF7F5FC38BDD0
:1033B000F0B585B00F4601921D46044690B1DFB1CD
:1033C000022D26D001F0AAFA50B9019B43B14FF06B
:1033D0003F0383F31188BFF36F8FBFF34F8F01BE9D
:1033E000002661E04FF03F0383F31188BFF36F8F36
:1033F000BFF34F8F01BEE2E7236C002BE0D04FF00C
:103400003F0383F31188BFF36F8FBFF34F8F01BE6C
:10341000D6E7E36B012BD5D04FF03F0383F3118840
:10342000BFF36F8FBFF34F8F01BECBE72A463946FC
:103430002046FFF739FF636A7BB948B14FF0E023BC
:103440004FF08052C3F8042DBFF34F8FBFF36F8F3F
:10345000FFF7A2FC012005B0F0BD04F1240001F04B
:10346000FBF80028F4D04FF0E0234FF08052C3F86F
:10347000042DBFF34F8FBFF36F8FE9E7FFF78CFC8D
:103480000020E8E702A801F0BDFB012619E00023B7
:1034900084F8443021E0002384F8453023E02046BE
:1034A000FFF74FFF00F09CFEFFF754FCA26BE36BAD
:1034B0009A42BBD3022DB9D0019B002BDED0002E47
:1034C000E0D0FFF769FC01F06FFBFFF743FC94F8D5
:1034D000440040B2B0F1FF3FD9D094F8450040B26B
:1034E000B0F1FF3FD7D0FFF757FC01A902A801F0C8
:1034F0009FF9D8B92046FFF7BBFE0028CFD001992D
:1035000004F1100001F064FB2046FFF71AFF00F001
:1035100067FE0028C8D14FF0E0234FF08052C3F877
:10352000042DBFF34F8FBFF36F8FBDE72046FFF72A
:1035300008FF00F055FE00208DE738B5044630B195
:10354000A56801F0E5F985420BD0002038BD4FF0A9
:103550003F0383F31188BFF36F8FBFF34F8F01BE1B
:10356000EEE7E368013BE3600BB10120EEE71A46AA
:1035700019462046FFF71CFF0120E7E72DE9F84335
:103580000E4690461D460446C8B116B3022D2DD0F6
:10359000FFF7FCFCEFF311894FF03F0383F3118831
:1035A000BFF36F8FBFF34F8FA26BE36B9A422AD3A7
:1035B000022D28D0002089F31188BDE8F8834FF050
:1035C0003F0383F31188BFF36F8FBFF34F8F01BEAB
:1035D000DBE7236C002BD9D04FF03F0383F3118836
:1035E000BFF36F8FBFF34F8F01BECFE7E36B012BAC
:1035F000CED04FF03F0383F31188BFF36F8FBFF33B
:103600004F8F01BEC4E794F845707FB2A36B2A4682
:1036100031462046FFF748FEB7F1FF3F0FD1636AFE
:103620000BB90120C7E704F1240001F015F8E0B15F
:10363000B8F1000F1BD00120C8F80000BBE701F073
:10364000C1FA874215D27F2F05D001377FB284F8A7
:1036500045700120AFE74FF03F0383F31188BFF3BC
:103660006F8FBFF34F8F01BEEFE70120A3E701206B
:10367000A1E701209FE7F8B50D46044640B3236C4F
:1036800043B14FF03F0383F31188BFF36F8FBFF354
:103690004F8F01BE23682BB3FFF778FCEFF3118740
:1036A0004FF03F0383F31188BFF36F8FBFF34F8F4A
:1036B000A36BE26B9A4241D994F8456076B201332C
:1036C000A363B6F1FF3F23D1636AC3B9012036E09B
:1036D0004FF03F0383F31188BFF36F8FBFF34F8F1A
:1036E00001BECCE7A368002BD6D04FF03F0383F395
:1036F0001188BFF36F8FBFF34F8F01BECCE704F18A
:10370000240000F0A9FFE8B1F5B10120286016E01F
:1037100001F058FA864219D27F2E05D0013676B2D2
:1037200084F8456001200AE04FF03F0383F31188DD
:10373000BFF36F8FBFF34F8F01BEEFE7002087F31A
:103740001188F8BD0120FAE70120F8E70120F6E72B
:10375000F0B585B00F460192044680B1CFB101F0BB
:10376000DDF850B9019B43B14FF03F0383F311885B
:10377000BFF36F8FBFF34F8F01BE002655E04FF0B0
:103780003F0383F31188BFF36F8FBFF34F8F01BEE9
:10379000E4E7236C002BE2D04FF03F0383F3118862
:1037A000BFF36F8FBFF34F8F01BED8E73946204676
:1037B000FFF7B5FD013DA563236923B9FFF7ECFAD7
:1037C000012005B0F0BD04F1100000F045FF002815
:1037D000F4D04FF0E0234FF08052C3F8042DBFF334
:1037E0004F8FBFF36F8FE9E7FFF7D6FA0020E8E7C6
:1037F00002A801F007FA012621E0002384F84430F2
:1038000029E0002384F845302BE02046FFF799FD9E
:1038100000F0E6FC09E02046FFF793FD00F0E0FC35
:103820002046FFF734FD00283FD1FFF793FAA56B40
:10383000002DBBD1019B002BD6D0002ED8D0FFF796
:10384000ABFA01F0B1F9FFF785FA94F844305BB2B6
:10385000B3F1FF3FD1D094F845305BB2B3F1FF3FF5
:10386000CFD0FFF799FA01A902A800F0E1FF0028E4
:10387000D1D12046FFF70BFD0028C6D0019904F1F5
:10388000240001F0A5F92046FFF75BFD00F0A8FC3D
:103890000028CAD14FF0E0234FF08052C3F8042D26
:1038A000BFF34F8FBFF36F8FBFE7002089E770B57D
:1038B00084B001910446D8B1236C43B14FF03F036B
:1038C00083F31188BFF36F8FBFF34F8F01BE01F0F9
:1038D00025F850B9019B43B14FF03F0383F31188A2
:1038E000BFF36F8FBFF34F8F01BE002635465DE0FB
:1038F0004FF03F0383F31188BFF36F8FBFF34F8FF8
:1039000001BED9E7013BA363236833B1236943B9FF
:10391000FFF742FA012004B070BD01F08DFAA060FB
:10392000F4E704F1100000F097FE0028F0D04FF00B
:10393000E0234FF08052C3F8042DBFF34F8FBFF345
:103940006F8FE5E746B14FF03F0383F31188BFF374
:103950006F8FBFF34F8F01BEFFF71EFA0020DAE72B
:1039600002A801F04FF901252AE0002384F8443031
:1039700032E0002384F8453034E0FFF7EBF9A0682B
:1039800001F04CF90646FFF707FA3BE02046FFF747
:10399000D8FC00F025FC09E02046FFF7D2FC00F03F
:1039A0001FFC2046FFF773FC002842D1FFF7D2F935
:1039B000A36B002BA6D1019B002BC3D0002DCFD031
:1039C000FFF7EAF901F0F0F8FFF7C4F994F8443092
:1039D0005BB2B3F1FF3FC8D094F845305BB2B3F1AE
:1039E000FF3FC6D0FFF7D8F901A902A800F020FFD9
:1039F0000028D1D12046FFF74AFC0028C6D0236812
:103A0000002BBAD0019904F1240001F0E1F820461E
:103A1000FFF797FC00F0E4FB0028C7D14FF0E0234C
:103A20004FF08052C3F8042DBFF34F8FBFF36F8F59
:103A3000BCE70EB900206EE7FFF78CF92046FFF7D0
:103A40000FFC0146A06801F097F9FFF7A5F9F1E72F
:103A500070B50D46044668B1A66800F059FF86426D
:103A600012D029462046FFF722FF88B1E3680133D0
:103A7000E3600DE04FF03F0383F31188BFF36F8FD6
:103A8000BFF34F8F01BEE7E7E3680133E360012036
:103A900070BD10B5044630B1FFF75CF9A46BFFF7B9
:103AA0007BF9204610BD4FF03F0383F31188BFF32D
:103AB0006F8FBFF34F8F01BEEEE770B504460D4622
:103AC0001646FFF747F994F844305BB2B3F1FF3F75
:103AD0000DD094F845305BB2B3F1FF3F0BD0FFF748
:103AE0005BF9A36B5BB12046FFF72BFC70BD002395
:103AF00084F84430EDE7002384F84530EFE73246A0
:103B0000294604F1240000F07DFDECE738B50D46B0
:103B1000044698B13CB1E36B2BB1226C0021A3FBAE
:103B20000223ABB9B1B14FF03F0383F31188BFF368
:103B30006F8FBFF34F8F01BE002038BD4FF03F03A2
:103B400083F31188BFF36F8FBFF34F8F01BEE1E79F
:103B50000121E7E7FFF7FEF82368E26B216C01FB28
:103B60000230A0600020A0636360013A02FB0133D1
:103B7000E360FF2384F8443084F84530B5B9236905
:103B80001BB9FFF709F90120D7E704F1100000F095
:103B900063FD0028F5D04FF0E0234FF08052C3F8CA
:103BA000042DBFF34F8FBFF36F8FEAE704F11000CE
:103BB000FFF70EF804F12400FFF70AF8E1E738B543
:103BC0001D46049C0B4649B92460E063236401212F
:103BD0002046FFF79BFF84F84C5038BD2260F4E785
:103BE00010B584B01C46EBB140B33CB302B129B36D
:103BF00012B350230393039B502B08D04FF03F0385
:103C000083F31188BFF36F8FBFF34F8F01BE039B08
:103C1000012384F8463000949DF81830FFF7CFFF59
:103C2000204615E04FF03F0383F31188BFF36F8FF9
:103C3000BFF34F8F01BED7E70029DAD04FF03F0323
:103C400083F31188BFF36F8FBFF34F8F01BE002046
:103C500004B010BD48B108B5002181600160C160A9
:103C60000B460A46FFF7A4FB08BD704710B582B0AB
:103C70000B460090002211460120FFF7B1FF0446D9
:103C8000FFF7E8FF204602B010BD000010B4044664
:103C900018B191B10020034613E04FF03F0383F3C6
:103CA0001188BFF36F8FBFF34F8F01BEF1E70E484E
:103CB00000EBC30008B1016044605DF8044B70473D
:103CC0000133092BF6D8084A02EBC3025268A2421C
:103CD000EDD00028F4D1044A52F83320002AEFD165
:103CE000014800EBC300EBE7B4F500080A4B1B6882
:103CF00003B10123094A1268D06A50B9084A126810
:103D0000012A07D833B9074B1868074B1B68C01A3C
:103D100070470020704700BFACF6000804F60008AA
:103D200010F60008DCF6000828F70008074B1B68AF
:103D30001B6823B9064B4FF0FF321A607047034BE4
:103D40001B68DB681A68024B1A60704708F60008A7
:103D5000DCF6000810B50446FEF7FCFF294A13689C
:103D600001331360284B1B685BB1284B1B686BB990
:103D7000254B1B68DA6AE36A9A4207D8224B1C601B
:103D800004E0214B1C601368012B37D0204A1368D4
:103D9000013313606364E36A1E4A1268934201D9D7
:103DA0001C4A13601C4A03EB830302EB83035B682A
:103DB000A3609868E060211D41609960E36A03EBAD
:103DC0008301880002EB81016161115801311150BA
:103DD000FEF7E2FF0D4B1B687BB10B4B1B68DA6AE9
:103DE000E36A9A4209D24FF0E0234FF08052C3F8C1
:103DF000042DBFF34F8FBFF36F8F10BD00F006FE91
:103E0000C4E700BF9CF6000804F60008FCF60008B2
:103E1000A8F60008ACF6000810F6000870B50446D5
:103E20000D461E4B1E681E4B18680430FEF7E9FE57
:103E3000B4F1FF3F0DD03444194B1B685C60A642BF
:103E40001DD9184B1868164B19680431FEF7ECFEA3
:103E500070BD002DEFD0144A5168114B1868816075
:103E600018688C68C4601868043060601868043092
:103E700088601B685A61136801331360E8E70B4BD5
:103E80001868074B19680431FEF7CEFE084B1B6813
:103E9000A342DDD9064B1C60DAE700BF28F7000813
:103EA00004F600080CF6000800F7000808F6000801
:103EB000DCF600082DE9F04385B007468846144635
:103EC0001E469000FFF702F920B38146D020FFF78D
:103ED000FDF80546D0B1D022002108F017FBC5F847
:103EE0003090E5B1002385F8CD30039302950D9B0A
:103EF00001930C9B0093334622464146384600F01E
:103F00001DFD2846FFF726FF012005E04846FFF784
:103F100065F9E6E74FF0FF3005B0BDE8F0834FF0FC
:103F2000FF30F9E710B588B000240594069407AA7D
:103F300006A905A8FEF74AFD059B0293069B01937F
:103F400000942346079A1C491C4800F0DBFD1C4BDB
:103F5000186050B101F014F9012808D0B0F1FF3F0A
:103F60001FD0184B1B6808B010BD0020F4E74FF0BD
:103F70003F0383F31188BFF36F8FBFF34F8F124B53
:103F80001B686833114A1360114B4FF0FF321A60FF
:103F9000104B01221A60104B00221A60FEF766FFD8
:103FA000DFE74FF03F0383F31188BFF36F8FBFF359
:103FB0004F8F01BED5E700BF60F7001079430010B6
:103FC000D8F600087423000804F60008B42300089B
:103FD000DCF60008FCF6000828F7000810B50446D7
:103FE0001D4B1B6803441D4A1268934208D94FF0C9
:103FF0003F0383F31188BFF36F8FBFF34F8F01BE71
:10400000154B1B682344154A1268934204D0124B87
:10401000186804441C6010BD114B1B6843B94FF075
:104020003F0383F31188BFF36F8FBFF34F8F01BE40
:1040300044B94FF03F0383F31188BFF36F8FBFF391
:104040004F8F01BEFEF786FE064A136801331360E8
:10405000FEF7A2FE013CDAE728F70008DCF60008CC
:10406000A4F60008E4F60008524B1B68002B40F051
:10407000998070B5504B1C6801341C60C4B94F4B1B
:104080001B681B6843B14FF03F0383F31188BFF3F4
:104090006F8FBFF34F8F01BE484A1168484B1868B5
:1040A00010601960474A136801331360FFF73EFE42
:1040B000454B1B68A34210D90020444B1B68DB6AA8
:1040C00003EB83039A00424B9B58012B00D901203C
:1040D000404B1B68002B6BD170BD002037E03A4B82
:1040E0004FF0FF321A60E8E7374B1A60E5E7D9680E
:1040F000516042E000219962116801391160DA6A69
:10410000354909688A4201D933490A60304902EBCE
:1041100082024FEA820C8C44DCF804209A60966894
:10412000DE6075609560DA6A02EB820C4FEA8C05FE
:104130004E195E614D5901354FEA8C0C41F80C5017
:10414000DA6A224B1B68DB6A9A4200D301201B4BC0
:104150001B681B68002BC2D0184B1B68DB68DB6830
:104160005A689442C0D35A699D68D968A9609D680D
:104170004D6051681D1DA942B9D0002159611168D7
:10418000013911609A6A002AB9D0DE69196AB160F2
:10419000DE694E60566803F118018E42AAD1196A91
:1041A0005160A7E70D4A1368013313600020704780
:1041B000012091E7A4F6000828F7000808F6000897
:1041C0000CF60008E0F60008DCF6000804F600082B
:1041D00010F600082CF70008ACF60008E4F600081A
:1041E00010B54A4B1B6843B94FF03F0383F3118866
:1041F000BFF36F8FBFF34F8F01BEFEF7ABFD434B95
:104200001A68013A1A601B68002B7AD1404B1B6870
:104210003BB9002476E0196A516015E0D968516015
:1042200021E000233B4A1268002A47D0394BDB6863
:10423000DB689A6AD869196A8160D86948605068F1
:1042400003F118018842E6D0002199621168013912
:1042500011605A699868D9688160986848605168A7
:10426000181D8142DAD000215961116801391160AD
:10427000DA6A294909688A4201D927490A60274927
:1042800002EB820201EB820252689A609468DC6061
:1042900060609060DA6A02EB8200840001EB8000CB
:1042A0005861085901300851D96A1D4A1268D26A0A
:1042B0009142B7D31B4A01211160B3E70BB1FFF75D
:1042C00035FD194B1C6884B9164B1C68D4B14FF0EE
:1042D000E0234FF08052C3F8042DBFF34F8FBFF39C
:1042E0006F8F01240EE0013C07D0FFF7BDFE0028D0
:1042F000F9D00C4B01221A60F5E70B4B00221A6033
:10430000E2E70024FEF748FD204610BDA4F60008B1
:104310009CF60008E8F60008ACF6000810F6000865
:1043200004F600082CF70008E4F6000810B5A8B160
:104330000446104B1B6843B14FF03F0383F31188D1
:10434000BFF36F8FBFF34F8F01BE00F02DFC002134
:104350002046FFF763FDFFF743FF48B94FF0E02326
:104360004FF08052C3F8042DBFF34F8FBFF36F8F10
:1043700010BD00BFA4F6000808B50DE04FF0E02323
:104380004FF08052C3F8042DBFF34F8FBFF36F8FF0
:10439000FFF7ACFC012806D800F08EFB0F4B1B6822
:1043A000012BEBD8F4E700F0FFFB0D4B1A680D4B27
:1043B0001B689A4208D24FF03F0383F31188BFF382
:1043C0006F8FBFF34F8F01BEFFF790FC012801D91B
:1043D000FEF714FBFFF704FFDEE700BF10F600084E
:1043E000DCF6000828F7000808B5304B1B681BB145
:1043F0002F4B01221A6008BD2D4B00221A602D4B55
:104400001B681B6B1A68B2F1A53F03D15A68B2F161
:10441000A53F08D0274B186819683431FEF7EEFD28
:10442000254B1B6809E09A68B2F1A53FF2D1DB6821
:10443000B3F1A53FEED1F3E7013B03EB83018A0023
:104440001E498A585AB9002BF6D14FF03F0282F329
:104450001188BFF36F8FBFF34F8F01BEECE703EB03
:10446000830082000A4450684068506003EB830C6C
:104470004FEA8C020832114488420FD003EB8302CA
:1044800091000E4A0A445268D1680A4A11600A49EA
:104490000B60136868330A4A1360ACE740686246F1
:1044A0009100064A0A445060E8E700BFA4F60008FD
:1044B0002CF7000804F60008ACF6000810F6000817
:1044C000B423000838B50446FEF744FCD4B1251DDA
:1044D0002846FEF796FBA36A1BB104F11800FEF70D
:1044E00090FB29462648FEF781FB0023002B0CDDBC
:1044F000FEF752FC234B1B68A3B9234B1B68A34256
:1045000017D038BD204B1C68E1E7E21892F8CC20A8
:10451000D2B2012A01D00133E8E7E218002182F883
:10452000CC10F8E7FEF716FCFFF700FCFEF734FCB2
:10453000E3E7144B1B68B3B1144B1B6843B14FF056
:104540003F0383F31188BFF36F8FBFF34F8F01BE1B
:104550004FF0E0234FF08052C3F8042DBFF34F8F8C
:10456000BFF36F8FCDE7064B1A68094B1B689A4261
:1045700003D1054B00221A60C3E7FFF735FFC0E700
:1045800000F70008FCF6000804F60008A4F600088E
:104590009CF6000838B5044630B3184B1B6843B985
:1045A0004FF03F0383F31188BFF36F8FBFF34F8F3B
:1045B00001BE134B186841F00041816161681868C1
:1045C000C16118688D6805621868183068601868DD
:1045D000183088601B689C622368013323600121C6
:1045E0001046FFF71BFC38BD4FF03F0383F31188E3
:1045F000BFF36F8FBFF34F8F01BECEE7A4F6000865
:1046000004F6000870B50346084611461A46BBB1C9
:104610005468104B1D68EC611D68A6682E621D6809
:10462000183575601D681835A5601B689A62136897
:104630000133136009B14FF0FF30FFF7EFFB70BD9E
:104640004FF03F0383F31188BFF36F8FBFF34F8F9A
:1046500001BEDDE704F6000810B5C368DC68002C75
:104660004AD0A36AE169226A8A60E16951605A68A6
:1046700004F118018A4249D00022A2621A68013A64
:104680001A602C4B1B68002B46D16369A168E26855
:104690008A60A16851605A68211D8A4239D000227F
:1046A00062611A68013A1A60E36A234A1268934207
:1046B00001D9214A1360214A03EB830302EB8303F0
:1046C0005B68A3609868E06041609960E36A03EB0F
:1046D0008301880002EB81016161115801311150A1
:1046E000FFF724FBE26A164B1B68DB6A9A421FD96C
:1046F0000120144B186010BD4FF03F0383F3118865
:10470000BFF36F8FBFF34F8F01BEAAE7226A5A60D3
:10471000B2E7E2685A60C2E70B4B5A68E261906800
:10472000206241609160A3621A6801321A60D9E781
:104730000020E0E7A4F60008ACF6000810F6000838
:1047400004F600082CF70008E8F6000810B5334B13
:104750001B6843B94FF03F0383F31188BFF36F8F9A
:10476000BFF34F8F01BE41F000410160C468002CCF
:1047700044D00369416882688A60416851605A6820
:10478000824245D0002202611A68013A1A60FFF79E
:10479000CDFA6369A168E2688A60A16851605A68CD
:1047A000211D8A4237D0002262611A68013A1A60DC
:1047B000E36A1B4A1268934201D9194A1360194AE5
:1047C00003EB830302EB83035B68A3609868E060FC
:1047D00041609960E36A03EB8301880002EB810189
:1047E0006161115801311150E26A0F4B1B68DB6A9D
:1047F0009A4202D90D4B01221A6010BD4FF03F03BF
:1048000083F31188BFF36F8FBFF34F8F01BEB0E703
:1048100082685A60B6E7E2685A60C4E7A4F6000806
:10482000ACF6000810F6000804F600082CF70008A3
:10483000F8B50C460546A8B1F4B1FEF78BFA1D4B4E
:1048400019686B68C81A2268B2F1FF3F2CD01A4E63
:1048500036682F68B74219D08B4217D800232360DF
:10486000012422E04FF03F0383F31188BFF36F8FE1
:10487000BFF34F8F01BEDFE74FF03F0383F3118893
:10488000BFF36F8FBFF34F8F01BED6E7824203D8CD
:1048900000232360012408E05B1A134423602846A8
:1048A00000F0B0F9002400E00024FEF775FA20467D
:1048B000F8BD00BF28F70008E0F60008014B012210
:1048C0001A6070472CF700080C4B1B6873B90C4B2F
:1048D0001B686BB90B4B1B6863B90B4B1A680B4B0E
:1048E0001B68013B9A4207D00120704700207047A7
:1048F000002070470020704702207047E8F600084B
:104900002CF70008E4F6000800F700089CF6000801
:10491000014B1868704700BF04F60008054B1B6880
:1049200033B1054B1B680BB1002070470220704764
:1049300001207047FCF60008A4F600082DE9F047B6
:1049400080460D4617469946089EDDF824A00A9C2D
:104950009200A521206B07F0D9FD236B07F180425F
:10496000013A03EB820727F007079DB14FF0000CD7
:10497000BCF10F0F0BD815F80C2004EB0C0383F8D7
:10498000342015F80C3013B10CF1010CF0E70023C2
:1049900084F84330062E08D94FF03F0383F3118883
:1049A000BFF36F8FBFF34F8F01BE062E00D90626CF
:1049B000E662E664201DFEF716F904F11800FEF722
:1049C00012F92461C6F10706A66164626022002123
:1049D00004F1680007F09AFD094BE366094B236771
:1049E000094B63674A4641463846FEF78BF920601B
:1049F000BAF1000F01D0CAF80040BDE8F08700BF4F
:104A000030FB001050FB001010FB001038B50024E4
:104A100007E004EB840293000E481844FEF7D8F830
:104A20000134062CF5D90C4D2846FEF7D1F80B4C75
:104A30002046FEF7CDF80A48FEF7CAF80948FEF707
:104A4000C7F80948FEF7C4F8084B1D60084B1C6006
:104A500038BD00BF10F60008B0F60008C4F6000824
:104A6000E8F6000814F7000800F7000808F6000848
:104A70000CF6000810B50446683008F0C1FA94F846
:104A8000CD306BB1012B12D0022B08D04FF03F0379
:104A900083F31188BFF36F8FBFF34F8F01BE10BD3B
:104AA000206BFEF79BFB2046FEF798FBF7E72046BE
:104AB000FEF794FBF3E700000F4B1B68D3B110B572
:104AC000FEF748F90D4BDB68DC68201DFEF799F80E
:104AD0000B4A1368013B1360074A1368013B1360DC
:104AE000FEF75AF92046FFF7C5FF034B1B68002B62
:104AF000E6D110BD704700BFA0F6000814F700080B
:104B00009CF600082DE9F04387B081460E46174613
:104B100098460F9D109C65B3002C34D0D02204928F
:104B2000049AD02A08D04FF03F0383F31188BFF3D3
:104B30006F8FBFF34F8F01BE049B74B36DB3D02250
:104B40000021204607F0E2FC2563022384F8CD30E3
:104B500000230393029405AB01930E9B00934346FD
:104B60003A4631464846FFF7E9FE2046FFF7F2F89D
:104B700015E04FF03F0383F31188BFF36F8FBFF34E
:104B80004F8F01BEC8E74FF03F0383F31188BFF397
:104B90006F8FBFF34F8F01BEC0E7002305930598C9
:104BA00007B0BDE8F0830000024A136801331360C8
:104BB000704700BFA4F60008014B1868704700BF9B
:104BC00028F70008014B1868704700BF9CF60008E2
:104BD00010B50C4648B10A4B19681831FEF724F895
:104BE00001212046FFF71AF910BD4FF03F0383F370
:104BF0001188BFF36F8FBFF34F8F01BEEBE700BF8C
:104C000004F60008034B1B680360034B1B684360FA
:104C1000704700BFE0F6000828F7000800284BD0D6
:104C200038B50446C36A264A1268D26A93423BD218
:104C30008269002A05DB224A1268D26AC2F10702A1
:104C40008261616903EB83031E4A02EB830399428D
:104C500005D01B4B1B68DB6AE362012038BD251DB4
:104C60002846FDF7CEFF164B1B68DB6AE362164A47
:104C70001268934201D9144A1360124A03EB83036A
:104C800002EB83035B68A3609968E1604D609D60FF
:104C9000E36A03EB8301880002EB81016161115833
:104CA000013111500120D9E7C26C054B1B68DB6A4A
:104CB0009A4203D30020D1E7002070470120CDE7BE
:104CC00004F6000810F60008ACF60008002849D0E9
:104CD00038B50446254B1B68834208D04FF03F038C
:104CE00083F31188BFF36F8FBFF34F8F01BE236D26
:104CF00043B94FF03F0383F31188BFF36F8FBFF3C6
:104D00004F8F01BE236D013B2365E16AE26C914246
:104D10002AD00BB1002038BD251D2846FDF771FFB4
:104D2000E36CE362C3F10702A261114A1268934285
:104D300001D90F4A13600F4A03EB830302EB83038D
:104D40005B68A3609968E1604D609D60E36A03EB76
:104D50008301880002EB810161611158013111501A
:104D60000120D8E7002070470020D4E704F60008AF
:104D7000ACF6000810F60008002856D038B50446F6
:104D8000036D43B94FF03F0383F31188BFF36F8F77
:104D9000BFF34F8F01BEE36C8B4200D20B46E26A39
:104DA0009A4202D0226D012A00D038BD1F4A1268F3
:104DB000A24230D0E26AE362A169002902DBC3F1BA
:104DC0000703A361616902EB8202194B03EB8202C4
:104DD0009142EAD1251D2846FDF713FFE36A154AE3
:104DE0001268934201D9134A1360114A03EB8303FB
:104DF00002EB83035B68A3609968E1604D609D608E
:104E0000E36A03EB8301880002EB810161611158C1
:104E100001311150C9E74FF03F0282F31188BFF30F
:104E20006F8FBFF34F8F01BEC4E7704704F60008D1
:104E300010F60008ACF60008054B1B6823B1044BC4
:104E40001A68136D01331365014B1868704700BF72
:104E500004F60008064B1A6813682BB90123036097
:104E600023B9D368186870470023F8E7002070471B
:104E700030F7000808B54160006191420CD8D21AA1
:104E800083699A4201D3012008BD011D094B1868AE
:104E9000FDF7CAFE0020F7E79A4201D2994206D2F6
:104EA000011D054B1868FDF7BFFE0020ECE701204F
:104EB000EAE700BF34F7000830F7000870B5044691
:104EC0000D46164604E0A3691D44236A2046984710
:104ED000A1692B46324629442046FFF7CBFF002824
:104EE000F1D170BD70B505460E460D4B1B68DB68F1
:104EF000DC68201DFDF785FE94F8283013F0040FC0
:104F000007D123F0010384F82830236A204698470C
:104F100070BD324629462046FFF7D0FFF5E700BFB7
:104F200030F7000808B505E0DB684FF0FF3118687E
:104F3000FFF7D8FF054B1B681A68002AF4D1044A12
:104F4000106802490860136008BD00BF30F7000810
:104F500034F7000838B50546FFF72EFE0446074B28
:104F60001B68834205D800232B60044B1C6020463D
:104F700038BDFFF7D7FF01232B60F6E700F80008E4
:104F800070B582B006460C46FFF70EFE01A8FFF78B
:104F9000E1FF019B33BB05460CB9B04219D224B1E5
:104FA000124A12681268DAB901242246711B104BAA
:104FB0001868FEF782FDFFF713F9A8B94FF0E02358
:104FC0004FF08052C3F8042DBFF34F8FBFF36F8FA4
:104FD0000AE0FFF705F929463046FFF783FF03E0B3
:104FE0001C46E2E7FFF7FCF802B070BD34F700089A
:104FF00054F8000830B587B002E0029B002B0FDAAE
:10500000002202A93B4B1868FEF7A2FB00286FD0D4
:10501000029B002BF1DA05990498039B9847ECE773
:10502000049C636913B1201DFDF7EBFD01A8FFF798
:1050300091FF0546029B013B082BE1D8DFE803F016
:10504000050529304A050529300094F8283043F039
:10505000010384F82830039BA169024619442046C5
:10506000FFF708FF0028CBD094F8283013F0040F86
:1050700007D123F0010384F82830236A204698479B
:10508000BEE7A3692A46039919442046FFF716FF95
:10509000F3E794F8283023F0010384F82830AFE7D1
:1050A00094F8283043F0010384F82830039BA3616F
:1050B00043B94FF03F0383F31188BFF36F8FBFF302
:1050C0004F8F01BEA1692B462A4629442046FFF78F
:1050D000D1FE95E794F8283013F0020F04D023F0A6
:1050E000010384F828308BE72046FEF777F887E73E
:1050F00007B030BD54F8000800B583B001A8FFF731
:10510000A9FE0199FFF73CFFFFF774FFF6E70000E7
:1051100030B583B0FDF71EFE114B1B681BB1FDF7C8
:105120003BFE03B030BD0F4D2846FDF751FD0E4C40
:105130002046FDF74DFD0D4B1D600D4B1C600023FF
:1051400000930C4B0C4A10210A20FEF749FD044B3A
:1051500018600028E3D00949FEF798FDDFE700BF9B
:1051600054F80008D8F70008ECF7000830F70008FA
:1051700034F7000804F8000838F7000868F7001052
:1051800010B588B0FFF7C4FF134B1B68C3B10024F0
:105190000594069407AA06A905A8FDF723FC059B1C
:1051A0000293069B0193032300932346079A0B491E
:1051B0000B48FFF7A7FC0B4B186008B1012009E072
:1051C0004FF03F0383F31188BFF36F8FBFF34F8F0F
:1051D00001BE002008B010BD54F8000870F70010A0
:1051E000F950001058F8000801BE0148704700BF90
:1051F0000202020401BE0148704700BF020202041D
:1052000001BE0148704700BF02020204012070473E
:10521000024B0B60072313600020704778230008BF
:10522000024B0B6002231360002070479423000898
:1052300008B5407805F0C4FC08BD000038B5054647
:1052400014468A4294BF00230123834209D080F090
:1052500001038A422CBF002101218B4201D04DB1B4
:1052600038BD06F0DBFA0549A1FB0431890C05F0D5
:10527000DDFDF4E7FDF7A2FAF2E700BF83DE1B4392
:1052800008B50B78092B04D00B2B07D001BE0648BC
:1052900003E0002004F09EFE002008BD012004F081
:1052A00099FE0020F9E700BF0102020408B504F0EE
:1052B000A1FE012802D901BE002008BD4FF4004024
:1052C000FBE708B5FFF7F2FF08BD00002DE9F0414C
:1052D00004460A78A2F10D03DBB2012B04D90F2A90
:1052E0002FD14E78013600E04E78002004F054FFB4
:1052F0000746002004F01EFF05F042FC20FA07F8E4
:10530000304605F03DFC20FA07F763786BB1F1B247
:10531000607804F0EFFE054663789BB958B93A46C9
:1053200041460020FFF78AFF0CE03A464146012043
:10533000FFF784FFEBE7424639460020FFF77EFF88
:1053400000E0024D2846BDE8F08100BF01020204E2
:10535000F8B505460139072935D8DFE801F00426FC
:10536000340634343424002600E00226002004F001
:1053700013FF0746002004F0DDFE05F001FC20FAD3
:1053800007F720FA06F46B788BB13146687804F0A1
:10539000E3FE06466B78BBB978B922463946002051
:1053A000FFF74CFF10E00326E0E70126DEE7224688
:1053B00039460120FFF742FFE7E73A462146002041
:1053C000FFF73CFF00E0014E3046F8BD000202044A
:1053D00008B519B1407804F047FE08BD407804F0E4
:1053E0006DFEFAE708B5407804F056FE08BD0000EF
:1053F0002DE9F84304460E461546DDF82080DDF819
:10540000249001279F404FEA520C1CEB00004FF004
:10541000000341F1000106F0ABFDC9F80000B842FD
:1054200001D9C9F80070B8F1000F19D0D9F80020DF
:1054300000232046314606F09BFD0246294698F897
:10544000000001F0D9FF0028B8BF4042B8F1000FBA
:1054500008D0D8F80430834206D30020BDE8F88392
:105460000020F3E70020F9E70048F7E70002020414
:1054700008B590F800C01CF0020F06D14A1E417812
:105480000CF0030004F04EFB08BD00234A1E4178D7
:105490000CF0030004F0AAFBF6E770B584B00446F4
:1054A0000D46164605F09CFB0146237813F0020FCB
:1054B0000ED013F0010F24D01D2303AA01920096F1
:1054C0002A464801C90EFFF793FFE0B104B070BD52
:1054D00013F0010F13D0102303AA019200962A465D
:1054E00008460021FFF784FF0028EFD12078039AB7
:1054F000013A617800F0030004F014FBE6E70823AA
:10550000EAE71523D9E7039B5A09207803F01F0324
:10551000013A617800F0030004F068FBD6E708B5B3
:105520000378417803F0030005F073FB08BD08B56C
:1055300031B10378417803F0030004F03DFC08BD6D
:105540000378417803F0030004F078FCF7E708B52E
:105550000378417803F0030004F0A2FC08BD0000CA
:105560000048704778F800102DE9F04182B00746F6
:105570000D469046084601F071FFC6B2002401E0D6
:105580000134E4B2B44213D205238DF804308DF80F
:1055900005508DF8064001A800F05EF9034600288A
:1055A000EED13D707C700122BA70C7F8048000E033
:1055B000024B184602B0BDE8F08100BF020E0204A3
:1055C00030B583B00C46054678B184B105238DF81B
:1055D000043023788DF8053063788DF8063001A803
:1055E00000F03AF928B103B030BD01BEEDE701BECD
:1055F000ECE7226863682A606B600123AB70F2E716
:1056000008B5034648B11A78122A08D0032A0AD9E5
:105610005A6812681846904708BD01BEF3E718465D
:10562000FFF7E0FEF8E71846FFF791FFF4E710B543
:10563000034648B11878122808D003280AD95868B8
:1056400044681846A04710BD01BEF3E71846FFF7AF
:10565000BFFEF8E71846FFF76AFFF4E710B5044607
:1056600068B12046FFF7CCFF98B12378122B08D001
:10567000032B0AD963689B68204698470AE001BE5D
:10568000EFE72046FFF7D4FD04E02046FFF747FF91
:1056900000E0002010BD10B5034648B1187812286C
:1056A00008D003280AD95868C4681846A04710BD16
:1056B00001BEF3E71846FFF79DFDF8E71846FFF730
:1056C000ECFEF4E708B5034648B11A78122A08D070
:1056D000032A0AD95A6812691846904708BD01BEC4
:1056E000F3E71846FFF734FEF8E71846FFF7C0FE69
:1056F000F4E710B582B0044690B1A37803B901BEB7
:1057000005238DF8043023788DF8053063788DF803
:10571000063001A800F0E4F80023A37002B010BD29
:1057200001BEEAE770B504280DD00D4611460246C9
:105730003C4C34F810E0441C1D2C07D8E4B2394E20
:1057400036F8144004E00D250520F0E740F205147A
:105750004FF0010C0CFA02FC334A0CEA02023AB98F
:10576000AE44A3F800E01B88A34258D2002070BDCD
:10577000C21E182A32D8DFE802F00D313431310F61
:1057800025312931313131312B312D313131313127
:10579000312F2700254A00E0254A1C80002AE2D04C
:1057A0000338182836D8DFE800F01E353835351EA6
:1057B0002F353135353535351E351E3535353535D1
:1057C00035331E001B4AE8E71B4AE6E71B4AE4E7BD
:1057D0001B4AE2E71B4AE0E71B4ADEE701BE002264
:1057E000DBE71A4AD9E70126B542BCD232F81500E8
:1057F000704411FA80F11980691CB142B3DA32F8B1
:1058000011407444A4B2AEE70226EDE71026EBE7A0
:105810000226E9E701BE0026E6E71A26E4E70C487F
:10582000A5E700BF48F90010280B0A0CD8F80010B3
:1058300010F9001014F9001044F9001018F90010C4
:1058400038F900103CF9001040F90010DCF80010A5
:10585000000E020400207047F0B583B00446002714
:10586000FDF783F806460DF10603A27861782078EB
:10587000FFF758FF054668B9BDF80630C3F3C70205
:1058800003F007031449895C012202FA03F3194269
:1058900018BF174605B9EFB92DB13046FDF769F8C5
:1058A000284603B0F0BD0DF10603A2786178207898
:1058B000FFF738FF05460028EFD1BDF80630C3F3E7
:1058C000C70103F00703044801229A40435C1343D5
:1058D0004354E2E7014DE0E75CF80008010E0204E2
:1058E00030B583B00446FDF740F805460DF10603D8
:1058F000A27861782078FFF715FF024660B9BDF8FD
:105900000630C3F3C70003F00703074C0121994099
:10591000235C23EA0103235402B101BE2846FDF7AC
:1059200028F803B030BD00BF5CF800082DE9F0474F
:1059300082B00446884617469A461E230371FF2309
:105940000372C371002505752B4609224049404664
:1059500000F0E8FD06462B4609223E49384600F095
:10596000E1FD002E6AD0054600286AD0327803781F
:105970009A4226D00023002B66D017238DF80430DE
:105980002B788DF805306B788DF8063001A8FFF77D
:1059900063FF8146E8B1B9F1000F2ED0B9F1000FD5
:1059A00008D1BAF1000F31D004F10C039AE80300DA
:1059B00083E80300B9F1000F35D0484602B0BDE8D6
:1059C000F087727843789A4201D00023D3E701230D
:1059D000D1E79DF80520204B53F822302360019B2E
:1059E000A3801B0CA3710C21304601F090FC814672
:1059F0000028D0D184F80780CDE70C21284601F09B
:105A000086FC81460028C9D12772C7E701231A46C0
:105A1000211D04F10C0001F03DFD8146B0FA80F03B
:105A200040092075C6E700230C4A0121204600F0FA
:105A3000E7FC0028C1D1DFF82890BEE7DFF824900A
:105A4000BBE7DFF82090B8E7DFF81890B5E700BFB4
:105A50009CF7001078F70010B0F90010A086010044
:105A6000010A0204000A020470B504460368ABB1DF
:105A70000023A4F88A3084F88C30C4F89030C4F83D
:105A80009430C4F89830C4F89C30224652F8180B71
:105A900002F01AFF054618B1284670BD01BEE7E7BF
:105AA000164A2146607900F0B7FD2268136843F07A
:105AB000004313600023C4F8A030C4F8A430C4F835
:105AC000A830C4F8AC30C4F8843084F888306379E6
:105AD0000B4E0C4A032136F9130000F02FFA6379BC
:105AE00036F91330002BD7DB03F01F015B090122CD
:105AF0008A40054941F82320CEE700BF695B0010CA
:105B0000CCF900100D5B001000E100E070B5154D00
:105B10002E6800F061FC04462860054655F8180B15
:105B2000294603F03CFCB4F88A3013B90D4B1E60D3
:105B300070BD2946206803F067F910F4803FF5D165
:105B4000B4F88A30032B03D00023A4F88A30EDE7A1
:105B50000123A4F88A30214651F8640B2A4603F049
:105B600055F9E3E780F8000800B583B00B4650F81C
:105B7000181B00910190022B05D0042B0BD00120A3
:105B800003B05DF804FB1146684602F08BFFB0FAE3
:105B900080F04009F4E71146684602F0E5FFB0FAEC
:105BA00080F04009ECE7000010B5044688B1206899
:105BB00040B104F1180102F069FF206802F040FFD3
:105BC0000023236023791E2B05D194F8B03023B332
:105BD00010BD01BEEBE700221146607900F01CFD0C
:105BE0006279154B33F91230002B0CDB03F01F01E7
:105BF0005B0901228A402033104941F82320BFF37A
:105C00004F8FBFF36F8F94F8B03013B11E23237101
:105C1000DBE7201DFFF764FEF8E7E01D01F06CFBF9
:105C200004F1080001F068FB237D002BD0D004F1C3
:105C30000C00FFF75EFDCBE7CCF9001000E100E0BF
:105C4000F8B50D4616461F46044688B1002184F873
:105C5000B010B422204606F059FC3B463246294695
:105C60002046FFF763FE054620B14DB92846F8BD32
:105C700001BEEBE704492046FFF7F6FE0546F4E7D0
:105C80002046FFF791FFF1E784F90010F0B587B0E7
:105C90000C46074660B36CB374B33E4656F8180B17
:105CA000314602F0F3FE0DF1040C1E4D0FCDACE8B1
:105CB0000F002B68CCF800302378FBB101238DF85E
:105CC0000430A3788DF8073023783BB1637A8DF8E0
:105CD00009308DF80A30237A8DF80830324601A950
:105CE000386802F0F1FD054650B1284607B0F0BD16
:105CF00001BED0E701BECFE701BECEE70223DEE75B
:105D0000237862680121384600F07AFB28B13A68AE
:105D1000136843F000431360E7E7386802F090FE31
:105D2000014DE2E784F90010010A020400B585B0D4
:105D3000024688B191B101AB03C983E80300FE219B
:105D40008DF80C1000218DF80D1019461046FFF744
:105D50009DFF05B05DF804FB01BEEBE701BEEAE77D
:105D60002DE9F04383B006460F4615461C46DDF884
:105D700028809DF82C9000F049FC002837D1F36969
:105D8000B3F1805F11D0334653F8180B00934346AC
:105D90000022394603F042F907468FB1B9F1000FEE
:105DA0001ED1384603B0BDE8F083334653F8180BD4
:105DB000009343460022394603F0CAF80746ECE751
:105DC000002CEBD0334653F8180B4246297803F0E9
:105DD000F9F907460028E1D1013CA4B20135EFE70B
:105DE000324652F8180B414603F074F9D9E7014FD7
:105DF000D7E700BF031A02042DE9F04782B0064638
:105E0000884615461C460A9F9DF82C9000F0FEFB24
:105E1000002842D1F369B3F1805F13D0334653F8C1
:105E2000180B00933B460122414603F0F7F88246E7
:105E3000BAF1000F27D0B9F1000F27D1504602B0B8
:105E4000BDE8F087334653F8180B00933B46012218
:105E5000414603F07DF88246EAE7334653F8180BD3
:105E600000933B462A46414603F060F982460028EB
:105E7000E1D1013CA4B20135002CDCD0012CECD1E5
:105E80004FF00108E9E74FF00008F5E7324652F815
:105E9000180B394603F01EF9D0E7DFF804A0CDE770
:105EA000031A020470B582B00D468378772B16D89A
:105EB000DA08134909688E6906EBC216C27803F046
:105EC0000704009201232A462146304601F002FCD5
:105ED0000A2D08D00B2D0CD0002002B070BD084A4E
:105EE00012689669EAE701222146304601F04CFC2F
:105EF000F2E700222146304601F046FCECE700BF05
:105F00006CF9000810B582B00146772810D8C30894
:105F1000094A1268906900EBC31000240094012321
:105F2000082201F0070101F0D5FB204602B010BDA8
:105F3000014B1B689869F0E76CF9000800B583B065
:105F4000ADF8000001911146684604F0C5FE03B0AB
:105F50005DF804FBEFF30583103B1BB20020012822
:105F600007D8054A32F910209A4204D00130C0B255
:105F7000F5E740F2FF307047A0F9001008B5FFF7D1
:105F8000E9FF40F2FF33984214D00B4B53F8203016
:105F90001A680721916192691A7C12B11A6800216E
:105FA00011629A6832B1597C11F0010F02D00021C0
:105FB000D868904708BD00BF84F80008F8B50368AA
:105FC0005A6912F0020F00F0898005460C465A69A2
:105FD00012F4007F00F084805A6912F4003F00F050
:105FE0008180032905D911F5702F03D36FF4702434
:105FF00000E0032402229A619B692B68DF68BFB22C
:10600000FCF7B3FC0646286843689BB24FF6FF7165
:1060100003E061B143689BB201397A1E92B29A42A1
:10602000F7D0BB42F5D07A1C92B29A42F1D041B17E
:1060300013FA84FC1FFA8CFC9E461A464FF6FF7139
:1060400008E03046FCF795FC274840E071B1426813
:1060500092B201399445F9D00CF10107BFB29742D1
:10606000F4D00CF10207BFB29742EFD072452FD3A4
:10607000A2EB0E02A21A13FA82F39BB24168140C2F
:1060800004EB1144A4B2026912F0040F01D003B969
:1060900001BEC268120C12041343C360002004F056
:1060A00067FE2A68136913F4806F01D004B901BE3A
:1060B000D3689BB243EA0444D460002004F058FE45
:1060C0003046FCF756FC2B6802221A620020F8BD0D
:1060D000A2EB0E0202F57F42FF32CBE70248F6E761
:1060E0000148F4E70048F2E70210020410B5044644
:1060F00003791E2B10D122686AB1536923F0011372
:1061000023F4807353613E2004F032FE206801F0D6
:106110002DFF0023236010BD42790C4B33F9123060
:10612000002B0CDB03F01F015B0901228A402033A6
:10613000074941F82320BFF34F8FBFF36F8F201D16
:10614000FFF7CEFB1E232371D5E700BFA0F9001097
:1061500000E100E070B584B0064630B11E23337113
:10616000002434747474304D03E001BEF6E701344A
:10617000E4B2012C18D82D4B33F9142040F2FF3330
:106180009A42F4D012238DF804308DF80540002394
:106190008DF8063001A8FFF75FFB05460028E6D121
:1061A000019BB3801B0CB37165B135B90023B3609B
:1061B000F36072791E4B43F822609DB185BB28467F
:1061C00004B070BD72791B4B53F8224034601A4AF8
:1061D00001AB07CA83E807001946204601F06EFEAE
:1061E0000546E2E77279114B33F91240134A032155
:1061F0002046FFF7A3FE002C07DB04F01F02640912
:10620000012393400E4A42F824303268536943F028
:10621000011343F4807353613E2004F0A9FDCDE7E0
:106220003046FFF763FFCAE701100204A0F900102F
:1062300084F8000898F90010A4F900107D5F0010A0
:1062400000E100E008B501230374FFF7B7FE08BDC5
:10625000036898687047000010B401B101BE417C2A
:1062600001F0FE0141741943417490F805C01349CF
:1062700031F91C10002911DB5201D2B201F1604149
:1062800001F5614181F800237BB10268022393612B
